:020000040800F2
:10000000F00A0020CD010008FF2600085B2400084C
:10001000FD2600080D050008A12F000800000000C3
:100020000000000000000000000000008D28000813
:10003000B305000800000000012700087929000826
:10004000E7010008E7010008E7010008E7010008F0
:10005000E7010008E7010008E7010008E7010008E0
:10006000E7010008E7010008E7010008E7010008D0
:10007000E701000871050008E70100087D05000898
:10008000E7010008E7010008E7010008E7010008B0
:10009000E7010008E7010008E7010008E7010008A0
:1000A000E7010008E7010008E7010008E701000890
:1000B000F9290008E7010008E7010008E701000846
:1000C000E7010008E7010008E7010008E701000870
:1000D000E7010008FD2E0008E7010008452F000891
:1000E000E7010008E7010008E7010008E701000850
:1000F000E7010008E7010008E7010008E701000840
:10010000E7010008E7010008E7010008E70100082F
:10011000E7010008E7010008E7010008E70100081F
:10012000E7010008E7010008E7010008E70100080F
:1001300000F002F800F03AF80AA090E8000C8244BF
:100140008344AAF10107DA4501D100F02FF8AFF29C
:10015000090EBAE80F0013F0010F18BFFB1A43F0A5
:10016000010318474041000060410000103A24BFDD
:1001700078C878C1FAD8520724BF30C830C144BF0C
:1001800004680C607047000000230024002500264E
:10019000103A28BF78C1FBD8520728BF30C148BFEA
:1001A0000B6070471FB51FBD10B510BD00F012F9F0
:1001B0001146FFF7F7FF02F033FF00F030F903B408
:1001C000FFF7F2FF03BC02F0FCFE00000948804785
:1001D00009480047FEE7FEE7FEE7FEE7FEE7FEE729
:1001E000FEE7FEE7FEE7FEE704480549054A064B41
:1001F00070470000F729000831010008F0040020D2
:10020000F00A0020F0060020F0060020704710B52C
:10021000431C02E010F8011B71B18107FAD14FF0C5
:10022000013202C88C1A8C4314EAC211F9D0C01AE8
:100230000A0603D0C01E10BDC01A10BD0A0401D0AA
:10024000801E10BD0902FCD0401E10BD032A40F2E2
:10025000308010F0030C00F0158011F8013BBCF168
:10026000020F624498BF11F801CB00F8013B38BF80
:1002700011F8013BA2F1040298BF00F801CB38BF8E
:1002800000F8013B11F0030300F07280083AC0F05F
:10029000088051F8043B083A51F804CBA0E8081054
:1002A000F5E7121D5CBF51F8043B40F8043BAFF387
:1002B0000080D20724BF11F8013B11F801CB48BFE1
:1002C00011F8012B24BF00F8013B00F801CB48BF17
:1002D00000F8012B70474FF000020429C0F0128093
:1002E00010F0030C00F01B80CCF1040CBCF1020FE9
:1002F00018BF00F8012BA8BF20F8022BA1EB0C01BE
:1003000000F00DB85FEAC17C24BF00F8012B00F8B3
:10031000012B48BF00F8012B70474FF0000200B5D9
:10032000134694469646203922BFA0E80C50A0E818
:100330000C50B1F12001BFF4F7AF090728BFA0E8C6
:100340000C5048BF0CC05DF804EB890028BF40F892
:10035000042B08BF704748BF20F8022B11F0804FD4
:1003600018BF00F8012B70477047704770477047FF
:1003700010B5203AC0F00B80B1E81850203AA0E840
:100380001850B1E81850A0E81850BFF4F5AF5FEA74
:10039000027C24BFB1E81850A0E8185044BF18C927
:1003A00018C0BDE810405FEA827C24BF51F8043BCE
:1003B00040F8043B08BF7047D20728BF31F8023B22
:1003C00048BF11F8012B28BF20F8023B48BF00F8B6
:1003D000012B7047754600F02BF8AE4605006946C4
:1003E000534620F00700854618B020B5FFF7FCFE05
:1003F000BDE820404FF000064FF000074FF0000826
:100400004FF0000B21F00701AC46ACE8C009ACE8A6
:10041000C009ACE8C009ACE8C0098D46704710B50A
:100420000446AFF300802046BDE81040FFF7C7BE8A
:10043000004870478C04002070B50446006881684D
:10044000C943C90717D1816821F00101816000F01B
:100450004BFF05460AE000BF00F046FF401B0228A4
:1004600004D920688068C043C00706D0206880682F
:10047000C043C007F0D0002070BDA06A40F010005B
:10048000A062E06A40F00100E062012070BD00005F
:10049000F8B500260446009600688168C943C9077C
:1004A0002DD0816841F0010181601648164900682D
:1004B000B0FBF1F000E0401E00900028FBD100F0FE
:1004C00013FF054616E000BF00F00EFF401B022898
:1004D00010D920688068C043C0070BD0A06A40F0E4
:1004E0001000A062E06A40F00100E06284F824603D
:1004F0000120F8BD20688068C043C007E4D1002017
:10050000F8BD00002400002040420F00FEE7034633
:1005100010B50020024604E09C5C521C2044C0B28E
:10052000D2B28A42F8D310BD034610B5002002466D
:1005300004E09C5C521C2044C0B2D2B28A42F8D380
:1005400010BD000010B506A002F0FAF906A002F0F6
:10055000F7F9BDE810404FF47A7000F0A9BD000033
:1005600041542B454E41540041542B5244454600C2
:10057000014800F003BC00003C040020014800F0EA
:10058000FDBB0000B003002030B590F840500124BE
:10059000AC40C56B6C60046863604368102B0368F3
:1005A00003D099600068C26030BD9A600068C16085
:1005B00030BD704772B6FEE70EB569460090012067
:1005C000019005200290074800F026F8054800F049
:1005D000FFF90A21034800F05DF9024800F09AF89B
:1005E00080B20EBD780000202DE9F04100250E46B6
:1005F00007462C4608E03846FFF7DEFF0544642036
:1006000002F0EAFC641CE4B2B442F4D3B5FBF6F0A9
:1006100080B2BDE8F0810000F8B50024009490F8A5
:1006200024202546012A12D0012280F824204A687D
:100630001F23072A0DD20668776B521E02EB820237
:1006400093409F430B6893401F43776319E0022058
:10065000F8BD06680D2A0AD2376BD21F02EB820260
:1006600093409F430B6893401F43376309E0F76A49
:100670000D3A02EB820293409F430B6893401F4365
:10068000F7620A68072306680A2A0AD3F7680A3A53
:1006900002EB420293409F438B6893401F43F760F5
:1006A00008E0376902EB420293409F438B68934016
:1006B0001F4337610A68102A01D0112A20D1124B3A
:1006C00002689A4217D193681B0219D4936843F4C5
:1006D000000393600968102912D10C490C4A09687B
:1006E000B1FBF2F101EB8101490000E0491E0091EC
:1006F0000029FBD104E0816A41F0200181620124DC
:1007000080F824502046F8BD002401402400002039
:1007100040420F000068C06C704700002DE9F041B6
:1007200004004FF000057FD0A06A002628B9E662D9
:1007300084F82460204600F081F82046FFF77CFE14
:10074000A16AC90600D420B1A06A40F01000A062DE
:100750006AE0A16A21F4885141F00201A1623349A3
:1007600023688B42E16904D1B1F5402F01D14FF4E8
:100770000021277B4FF4807C41EA470261680A43ED
:10078000A168614508D0012906D0002194F814E041
:10079000BEF1010F02D00AE06146F7E7C7B1A76AD0
:1007A00047F02007A762E76A47F00107E7625F6842
:1007B00027F469470F435F60236899681C4F3940ED
:1007C00011439960A16861450BD0012909D00CE063
:1007D000DFF860E0A7690EEB47370F4347F400618D
:1007E000E5E7218A0D05A5F580152168CB6A23F47C
:1007F00070032B43CB62216889680F4B19409142EB
:1008000008D1E662A16A21F0020141F00101A16272
:10081000BDE8F081A06A20F0020040F01000A06264
:10082000E06A40F00100E0620120F1E7003C014095
:10083000FDF7E1FF00E0FFFFFE0E1FFF00B585B0F2
:100840000021009101910291039100680E498842B4
:1008500018D10E48816941F400718161816901F408
:1008600000710491816941F00401816180696946E8
:1008700000F004000490E020009003200190044860
:1008800000F028FC05B000BD00240140001002402B
:10089000000801402DE9F84300270D460446009763
:1008A00000F022FD804620688168C90508D5A06A4D
:1008B00040F02000A06284F824700120BDE8F88395
:1008C0004168C90503D4C06A10F4700F2AD0022011
:1008D00000F0DEFD3B490968B1FBF0F620680369D2
:1008E00039490B424FEA61014FEAA1121FD1C36897
:1008F0004FEA611C13EA0C0F19D103690B4225D191
:10090000C068104222D1142023E0681C0AD02DB107
:1009100000F0EAFCA0EB0800A84203D920680068B8
:10092000800725D5206800688007EED52DE0036993
:100930000B4202D1C168114206D0026923490A4222
:1009400006D1C068084203D1542002E0292000E00B
:10095000FC204643009816E0681C11D02DB100F031
:10096000C3FCA0EB0800A8420AD90098B04207D205
:10097000A06A40F00400A06284F8247003209DE780
:100980000098401C0090B042E6D321686FF012003E
:100990000860A06A40F40070A06220688068C0F31C
:1009A000424007280CD1207B50B9A06A20F4807007
:1009B000A062A06AC00403D4A06A40F00100A06253
:1009C00000207BE72400002024499224499224003F
:1009D00070B5044690F8240001280DD0012084F859
:1009E00024002046FFF754FD02004FF0000005D020
:1009F00084F82400104670BD022070BDA16A40F248
:100A00000123994341F48071A1621F4D23681F495E
:100A1000AB4218D10E6816F4702F14D0A66A46F4B3
:100A20008016A6620E68760505D5A66A26F40056DD
:100A300046F48056A662A66AF6040AD5E66A26F04F
:100A40000606E66206E0A66A26F48016A6625E68DE
:100A5000E9E7E06284F824006FF002001860206883
:100A60008368C3F34243072B05D1A84208D1096824
:100A700011F4702F04D0816841F480118160B9E7CE
:100A8000816841F4A001F9E70028014004240140F5
:100A900070B500B3F9B14379012B1ED00126467120
:100AA0000223037105682C6802F0100340F6FE7201
:100AB0009A409443D1E900210A439A4022432A6094
:100AC00001680A68C0249C40A2430A6006710021A4
:100AD0004171084670BD012070BD022070BD70B527
:100AE000040003D02079002510B105E0012070BD7D
:100AF0006571204600F008F8022020712561012070
:100B00002071002070BD000000B585B0002100916B
:100B100001910291039100680E49884218D10E4854
:100B2000C16941F00051C161C16901F000510491F6
:100B3000816941F0040181618069694600F0040027
:100B400004901020009003200190044800F0C2FAA5
:100B500005B000BD007400400010024000080140D4
:100B600018B50024009440B100680090104431B1E1
:100B7000143000900360002018BD012018BD08301B
:100B8000F7E770B508B34279012A20D001224271FB
:100B9000022303710468266801F0100302FA03F5CA
:100BA0002E4326600029016813D00C6804F47015E8
:100BB0003C249C40A54203D14B6843F002034B60A8
:100BC000027100214171084670BD012070BD0220F4
:100BD00070BD0B68C3F383030F2BF1D14B6843F057
:100BE0000103ECE710B558B10268136801F0100476
:100BF000012101FA04F4A34313600171002010BD28
:100C0000012010BD10B590F821100022022905D056
:100C10000421816380F82020012010BD01680B6849
:100C200023F00E030B6001680B6823F001030B60D7
:100C300090F84030C46B012101FA03F3636080F83F
:100C4000211080F82020104610BD00002DE9F05F33
:100C500090F821100024022903D00421816301248B
:100C600085E001680A6822F00E020A6001680A68DD
:100C700022F001020A603F4E3E4FB215DFF8F4C089
:100C8000DFF8F090DFF8ECA0DFF8E8B0DFF8E4E0A0
:100C90000168783F13011502ACF1640CA9F1500909
:100CA000AAF13C0AABF1280BAEF1140E4FF48018F8
:100CB000B14227D9B9420ED0614512D049451DD065
:100CC000514518D0594518D0714501D1424615E01B
:100CD000294EB14201D1012210E0274E1436B14213
:100CE00001D110220AE0244E2836B14206D0224A11
:100CF0003C32914201D11A4600E02A461E49091FA2
:100D00000A602BE0B94213D0614517D0494522D083
:100D100051451DD059451DD0714501D142461AE0BB
:100D2000B14202D14FF0807215E0134EB14201D1B1
:100D3000012210E0104E1436B14201D110220AE017
:100D40000D4E2836B14206D00B4A3C32914201D1B9
:100D50001A4600E02A46074980394A60012180F896
:100D60002110002180F82010416B01B188472046F6
:100D7000BDE8F09F80000240080402402DE9F05FCA
:100D8000C16B0A6801680B68046C4FF0040808FA2C
:100D900004F8844D844E854FDFF814C2DFF81492B6
:100DA000DFF814A2DFF814B2DFF814E218EA020F39
:100DB00065D05FEA437862D50A68920603D40A6870
:100DC00022F004020A60DFF8F0814FF480620168CB
:100DD00008F1140813011402414524D9A9420DD089
:100DE000B1420FD0B9421AD0614515D0494515D04E
:100DF000514501D1120312E0594501D104220EE000
:100E0000714501D140220AE06D4D1435A94206D04A
:100E10006B4A2832914201D11A4600E022466749C6
:100E2000091F0A6029E0A94213D0B14215D0B94286
:100E300020D061451BD049451BD0514502D14FF40C
:100E4000800217E0414502D14FF0806212E059451F
:100E500001D104220EE0714501D140220AE0584D33
:100E60001435A94206D0564A2832914201D11A4679
:100E700000E022464B4908394A60C16A71E04FF0F0
:100E8000020808FA04F818EA020F70D05FEA8378C3
:100E90006DD50A68920606D40A6822F00A020A6032
:100EA000012180F82110DFF810814FF400720168F1
:100EB00008F1140813011402414524D9A9420DD0A8
:100EC000B1420FD0B9421AD0614515D0494515D06D
:100ED000514501D1120312E0594501D102220EE021
:100EE000714501D120220AE0354D1435A94206D0C2
:100EF000334A2832914201D11A4600E022462F4956
:100F0000091F0A6029E0A94213D0B14215D0B942A5
:100F100020D061451BD049451BD0514502D14FF42B
:100F2000001217E0414502D14FF0007212E059451E
:100F300001D102220EE0714501D120220AE0204DAC
:100F40001435A94206D01E4A2832914201D11A46D0
:100F500000E02246134908394A60002180F8201039
:100F6000816A00291CD0BDE8F05F0847FFE708252B
:100F7000A540154214D01A0712D50A6822F00E02B5
:100F80000A6090F84020C36B012101FA02F25A6016
:100F9000816380F82110002180F82010016BE0E7C8
:100FA000BDE8F09F080002401C00024030000240F3
:100FB00044000240580002406C0002400804024015
:100FC0001C04024030B560B11A4B026814219A42E9
:100FD00009D2194B1344B3FBF1F18900016417499D
:100FE0000AE0012030BD134B5B421344B3FBF1F127
:100FF000890001640F490839C163022180F821107A
:10100000136843F6F0718B43F0E901142143D0E9F2
:1010100002452C43214304692143446921438469E7
:101020002143194311600021416301224277017776
:10103000084630BD08040240F8FFFDBF0000024032
:1010400070B5044690F82000002501280CD001203E
:1010500084F8200094F821600020012E06D084F846
:1010600020000225284670BD022070BD022684F8AB
:101070002160A0632068066826F00106066020460D
:10108000FFF782FAE06A00282068016802D041F088
:101090000E0106E021F0040101602068016841F0C2
:1010A0000A0101602068016841F001010160D9E78F
:1010B00070B5044600F018F90546601C02D00448DB
:1010C0000078044400F010F9401BA042FAD370BD30
:1010D000180000202DE9F84FDFF8C8910024A9F18D
:1010E000040B23460F2709F1040AABF1040ED1E0EB
:1010F0000125A54006EA0502AA4276D1DFF8A8C17B
:101100004E68A6EB0C0866452BD00DDC032E34D0C0
:1011100005DC36B3012E19D0022E2FD11BE0112E83
:1011200016D0122E2AD119E0B8F5881F19D006DC86
:10113000B8F5803F15D0B8F5801F1FD111E0B8F584
:10114000001F0ED0B8F5041F18D10AE0CB6815E0D7
:10115000CB681B1D12E0CB6808330FE0CB680C3363
:101160000CE08B682BB1012B4FF0080303D04561D5
:1011700004E0042302E0056100E00023FF2A01D817
:10118000064601E000F104064FEA840501D9A5F105
:101190002005D6F8008007FA05FC28EA0C0803FAB7
:1011A00005F548EA0508C6F800804D68ED0070D5E1
:1011B0003E4DAE6946F00106AE61AD6924F003060E
:1011C00005F0010500953A4D06EB050CDCF80850DA
:1011D000A607360F07FA06F825EA0805DFF8D480D7
:1011E000404503D14FF0000825E052E0DFF8C88009
:1011F000404502D14FF001081DE0DFF8C0804045B6
:1012000002D14FF0020816E0DFF8B480404502D169
:101210004FF003080FE0DFF8AC80404502D14FF0FB
:10122000040808E0DFF8A080404502D14FF005082F
:1012300001E04FF0060808FA06F848EA0508CCF87D
:1012400008804D68D9F80060ED024D4601D516437F
:1012500000E096432E604D68DAF80060AD02554616
:1012600001D5164300E096432E604D68DBF8006020
:10127000AD035D4601D5164300E096432E604D68F0
:10128000DEF80060ED03754601D5164300E0964395
:101290002E60641C0A681646E2407FF429AFBDE860
:1012A000F88F0000080401400000111000100240F7
:1012B0000000014000080140000C01400010014006
:1012C0000014014000180140001C0140C26821EADE
:1012D00002030A4043EA0241016170470AB1016119
:1012E00070470904FBE70000014880687047000070
:1012F0001800002070B5040013D021684CF6CC40D3
:101300000860216845F255500860D4E90001416049
:101310002168A0688860FFF7E7FF054641F23C3688
:101320000DE0012070BD00BFFFF7DEFF401BB042A3
:1013300005D92068C068800701D0032070BD2068EF
:10134000C0688007F0D121684AF6AA200860002012
:1013500070BD00684AF6AA210160002070470000B5
:1013600002488168027811448160704718000020AB
:10137000074810B5016841F010010160032000F03A
:1013800075F80F2000F006F800F024F8002010BDDA
:101390000020024070B50D4D04464FF47A71287854
:1013A000B1FBF0F00A490968B1FBF0F000F0BAFBBC
:1013B00048B9102C07D200222146501E00F036F802
:1013C00000206C6070BD012070BD0000180000207E
:1013D000240000200C4808B5816941F001018161B9
:1013E000816901F001010091C16941F08051C16141
:1013F000C06900F0805000900448416821F0E0612D
:1014000041F08071416008BD0010024000000140C1
:10141000002809DB00F01F020121914040098000F3
:1014200000F1E020C0F8001170470000F0B40E4B4E
:101430001B680C46C3F30223C3F10705042D00D932
:101440000425191D072901D2002300E0DB1E012617
:1014500006FA05F1491E214099409E40761E16402D
:101460003143F0BC01F09DBD0CED00E0064900F0F9
:10147000070208684FF6FF03184040EA0220034ABB
:1014800010430860704700000CED00E00000FA0512
:1014900010B501460020284C04292FD00BDC01296F
:1014A00030D0022929D100F06BF96168C1F3813194
:1014B000491C49001FE0082920D010291DD161686E
:1014C0002268D20119D51D48C1F38342C903805C4B
:1014D0000AD56168194AC1F34041921E515C184A0D
:1014E000B2FBF1F1484301E0164948436168490203
:1014F00003D440000321B0FBF1F010BDBDE8104063
:1015000000F04EB9226AC2F30121012903D19207EA
:1015100001D5C80310BD022905D1626A920702D520
:1015200049F6404010BD0329FCD121688903F9D553
:101530004FF2244010BD0000001002407A42000823
:1015400000127A0000093D002DE9F84305460078B5
:10155000354CC00754D0E0690026C00008D4E069CB
:1015600040F08050E061E069012600F0805000907A
:101570002E480168C90512D40168804641F4807183
:101580000160FFF7B1FE074605E000BFFFF7ACFEC4
:10159000C01B642823D8D8F80000C005F6D5206AFF
:1015A00010F4407021D0A98801F4407181421CD010
:1015B000206A1F49012220F440700A6000220A605C
:1015C0002062C00711D0FFF78FFE074641F288382E
:1015D00008E000BFFFF788FEC11B414502D9032088
:1015E000BDE8F883206A8007F4D5206A696820F492
:1015F0004070084320621EB1E06920F08050E06135
:101600002878800705D56068A96820F44040084321
:1016100060602878C00605D56068696920F480009C
:10162000084360600020DBE70010024000700040CB
:10163000400442422DE9F0470F46050061D0434E79
:10164000306800F00700B84209D2306820F0070087
:1016500038433060306800F00700B84251D1286844
:101660003B4C810712D5400703D5606840F4E06029
:1016700060602878000703D5606840F460506060BF
:101680006068A96820F0F000084360602878C0070F
:1016900028D06868012810D02168022810D0890756
:1016A00000292EDA616821F0030101436160FFF730
:1016B0001BFE804641F288390DE021688903EFE77F
:1016C0008901EDE7FFF710FEA0EB0801494502D9BB
:1016D0000320BDE8F0876068696800F00C00B0EB9B
:1016E000810FEFD1306800F00700B8420BD93068A5
:1016F00020F0070038433060306800F00700B8423F
:1017000001D00120E5E72878400705D56068E96841
:1017100020F4E060084360602878000706D5606820
:10172000296920F4605040EAC100606000F038F898
:101730006168084AC1F30311515CC840064908605A
:1017400006480068FFF726FE0020C2E7002002409E
:10175000001002408A420008240000201C000020E3
:101760000448054900684968044AC1F30221515CF4
:10177000C840704724000020001002409A42000830
:101780000448054900684968044AC1F3C221515C14
:10179000C840704724000020001002409A42000810
:1017A0000E4A51680E4801F00C03042B11D0082B8F
:1017B0000FD10C48C1F38343C903C05C0AD55168FB
:1017C000084AC1F34041921E515C054A5043B0FBA8
:1017D000F1F0704704494843704700000010024090
:1017E00000127A006842000800093D002DE9F84F18
:1017F000040070D02078C04DC00749D06868C0F39D
:101800008100012807D06868C0F38100022809D14F
:101810006868C00306D52868800339D56068002849
:10182000E7D035E06068B0F5803F0BD010B1B0F57F
:10183000A02F11D0286820F480302860286820F478
:10184000802002E0286840F480302860606890B111
:10185000FFF74AFD06460AE0286840F48020286029
:10186000F0E700BFFFF740FD801B642873D82868AD
:101870008003F7D50CE0FFF737FD064605E000BF13
:10188000FFF732FD801B6428F0D828688003F7D466
:1018900020789A4E80074FF001094FF0000839D5A3
:1018A000686810F00C0F07D06868C0F38100022848
:1018B00009D16868C00306D42868800714D5206958
:1018C000012808D110E02069B0B1C6F80090FFF7F8
:1018D0000BFD074605E00AE1FFF706FDC01B0228E5
:1018E000C4D828688007F7D52868616920F0F80017
:1018F00040EAC10028600DE0C6F80080FFF7F4FC64
:10190000074604E0FFF7F0FCC01B022823D8286834
:101910008007F7D4207800072CD57948A169D9B180
:10192000C0F80090FFF7E0FC074604E0FFF7DCFC9E
:10193000C01B02280FD8686A8007F7D571484FF49A
:10194000FA510068B0FBF1F0009000BF0098411E12
:101950000091FAD20EE080E0C0F80080FFF7C4FCEE
:10196000074604E0FFF7C0FCC01B022875D8686A70
:101970008007F7D42078400760D5E8690027C000C9
:1019800008D4E86940F08050E861E869012700F078
:10199000805000905C480168C90513D401688346F3
:1019A00041F480710160FFF79FFC824606E000BFB2
:1019B000FFF79AFCA0EB0A0064284ED8DBF8000081
:1019C000C005F5D5E06801280AD008B1052813D074
:1019D000286A20F001002862286A20F0040002E052
:1019E000286A40F001002862E06841F2883B98B123
:1019F000FFF77AFC82460BE0286A40F00400286278
:101A0000EEE700BFFFF770FCA0EB0A0159455AD87A
:101A1000286A8007F6D50CE0FFF766FC824605E0F1
:101A2000FFF762FCA0EB0A0159454CD8286A8007F1
:101A3000F6D41FB1E86920F08050E861E06988B30E
:101A40006968C1F38101022944D00228C6F8608088
:101A500004D0FFF749FC044638E034E0FFF744FCCB
:101A6000074604E0FFF740FCC01B02282BD828687B
:101A70008001F7D4206AB0F5803F05D16868A1687D
:101A800020F4003008436860D4E90801084369681D
:101A900021F4741108436860C6F86090FFF724FCD5
:101AA000044606E025E000BFFFF71EFC001B0228ED
:101AB00009D828688001F7D51BE000BFFFF714FCA8
:101AC000001B022802D90320BDE8F88F2868800196
:101AD000F4D40EE00128F7D06868226A00F480315F
:101AE000914204D1616A00F47010884201D0012053
:101AF000EAE70020E8E70000001002400000424250
:101B00008004424224000020007000404FF0E02199
:101B10000428086903D020F004000861704740F0F1
:101B20000400FAE710B5401EB0F1807F01D3012018
:101B300010BD4FF0E02460610F21601701F031FA11
:101B40000020A06107202061002010BD7047704771
:101B500070B590F83C20012A2CD0012480F83C403C
:101B6000022280F83D2003685A689D6822F07006C2
:101B70000A6832435A60104B02689A420ED00F4BEB
:101B80009A420BD0B2F1804F08D00D4B9A4205D04B
:101B90000C4B9A4202D00C4B9A4204D1496825F072
:101BA00080031943916080F83D40002180F83C108B
:101BB000084670BD022070BD002C01400034014079
:101BC0000004004000080040000C004010B5040074
:101BD00003D094F83D0010B107E0012010BD0020B3
:101BE00084F83C00204600F01FF8022084F83D00F5
:101BF000211D206800F00CFF012084F8460084F8C5
:101C00003E0084F83F0084F8400084F8410084F8E6
:101C1000420084F8430084F8440084F8450084F8C6
:101C20003D00002010BD000008B50068B0F1804FF5
:101C300012D10A48C16941F00101C161C0690022A5
:101C400000F00100009011461C20FFF7EFFBBDE8FB
:101C500008401C20FFF7DCBB08BD0000001002405C
:101C600090F83D10012901D001207047022180F831
:101C70003D100168CA6842F00102CA6000680E495E
:101C800088420ED00D4988420BD0B0F1804F08D069
:101C90000B49884205D00B49884202D00A49884244
:101CA00004D1816801F00701062903D0016841F0E1
:101CB0000101016000207047002C01400034014008
:101CC0000004004000080040000C00400168CA68A1
:101CD00022F00102CA6001680A6A41F211131A4235
:101CE00007D10A6A9B101A4203D10A6822F0010246
:101CF0000A60012180F83D100020704770B504464D
:101D000090F83C000025012817D0012684F83C609B
:101D1000022084F83D002068826822F0770222F4D5
:101D20007F4282600868502838D00DDC20284FD0D0
:101D300005DC90B3102811D14AE0022070BD302894
:101D400046D040280AD13BE060282FD070280DD023
:101D5000B0F5805F03D0B0F5005F12D0012584F8A4
:101D60003D60002084F83C00284670BDCB68D1E976
:101D70000121206800F09AFE2068816841F0770117
:101D800009E0CB68D1E90121206800F08FFE2068CE
:101D9000816841F480418160E1E719E0CA684968DF
:101DA000206800F095FE5021206806E0CA68496866
:101DB000206800F09EFE6021206800F081FECEE7E2
:101DC000CA684968206800F083FE40212068F4E773
:101DD000226801461046F0E770472DE9F0410446BD
:101DE0000068C66805694FF00007A90713D5B10759
:101DF00011D5F91E016101202077206880698007D4
:101E0000204602D0FFF7E8FF04E000F07EF820460D
:101E100000F07CF82777680716D5700714D521687D
:101E20006FF004000861022020772068806910F4B8
:101E3000407F204602D0FFF7CFFF04E000F065F8B6
:101E4000204600F063F82777280715D5300713D50B
:101E500021686FF008000861042020772068C069BD
:101E60008007204602D0FFF7B7FF04E000F04DF8EE
:101E7000204600F04BF82777E80616D5F00614D573
:101E800021686FF010000861082020772068C06981
:101E900010F4407F204602D0FFF79EFF04E000F0E0
:101EA00034F8204600F032F82777E80708D0F0072A
:101EB00006D021686FF001000861204600F027F885
:101EC000280608D5300606D521686FF08000086125
:101ED0002046FFF73BFE680608D5700606D5216848
:101EE0006FF040000861204600F012F8A8060AD5FD
:101EF000B00608D521686FF0200008612046BDE8D3
:101F0000F041FFF724BEBDE8F0817047704770478D
:101F10007047704710B504460068406994F8411056
:101F2000C0F3C010212911D180B12068143050E8CD
:101F3000001F21F0800140E80012002AF5D1A06BBB
:101F400008B1FEF75FFE204600F08BFE2068406976
:101F500094F84210C0F38010222911D180B120687A
:101F6000143050E8001F21F0400140E80012002A20
:101F7000F5D1E06B08B1FEF745FE204600F04AFEC1
:101F8000002010BD70470000F8B5016804460868DD
:101F9000CA684B6910F00F0F4FF0000559D003F0DD
:101FA000010602F49077374365D0C10705D0D1050B
:101FB00003D5616C41F001016164410705D5D90782
:101FC00003D0616C41F002016164810705D5D90736
:101FD00003D0616C41F004016164010707D502F090
:101FE0002001314303D0616C41F008016164616CF0
:101FF00000293AD0800604D5900602D5204600F08C
:102000003EFE20684069616CC0F38010090700D46F
:1020100060B3204600F0FEFD20684069400621D5EF
:102020002068143050E8001F21F0400140E8001201
:10203000002AF5D1E06BA8B16D494163E06BFEF772
:1020400005FE002811D0E06B416B01B0BDE8F04007
:10205000084783060FD593060DD52046BDE8F84006
:1020600000F00DBE2046FFF78DFFF8BD2046FFF7BC
:1020700089FF6564F8BD266B2023012E7CD1C6063E
:102080007AD5D60678D508684868009048694FF038
:102090000206400640D5E16B086840680004000C69
:1020A000E8D0A28D8242E5D9E085886920282DD02C
:1020B00020680C3050E8001F21F4807140E80012C5
:1020C000002AF5D12068143050E8001F21F00101EA
:1020D00040E80012002AF5D12068143050E8001FB3
:1020E00021F0400140E80012002AF5D184F8423086
:1020F000256320680C3050E8001F21F0100140E8F3
:102100000012002AF5D1E06BFEF77CFD6663A08D1E
:10211000E18D401A81B22AE0A08DE18D401A81B292
:10212000E08D0028A6D00029A4D022680C3252E805
:10213000000F20F4907042E80007002FF5D12068CE
:10214000143050E8002F22F0010240E80027002F51
:10215000F5D184F84230256320680C3050E8002F18
:1021600022F0100240E80023002BF5D166632046E0
:10217000FFF7CFFEF8BDFFE705062BD5150629D5DD
:1021800094F841002128F5D1A068B0F5805F01D115
:102190002069B0B1206A411C216221680078486042
:1021A000E08C401E0004000CE084E3D12068C1688C
:1021B00021F08001C1602068C16841F04001C16028
:1021C000D8E7206A0088C0F308004860206A801CB5
:1021D0002062E5E74006CDD55006CBD5CA6820463B
:1021E00022F04002CA6084F8413000F035F9C1E7BE
:1021F000172B000870B5040004D094F841000025A6
:1022000010B106E0012070BD84F84050204600F077
:1022100023F8242084F841002068C16821F400518B
:10222000C160204600F08CFD2068016921F49041D6
:1022300001612068416921F02A0141612068C1687B
:1022400041F40051C1606564202084F8410084F8A5
:1022500042006563002070BD2DE9F04385B0002485
:102260000094019402940394064603684448DFF8FE
:102270000CC102210322051580274FF02008634579
:1022800039D1836943F480438361836903F48043D4
:102290000493836943F0040383618069DFF8E49069
:1022A00000F0040004900802CDE9000103926946A1
:1022B0004846FEF70FFFCDE90054694648460294B0
:1022C000FEF708FF314D3048C5E90004C5E9024773
:1022D0002C61C5E905482846EC61FEF773FE08B19C
:1022E000FEF768F9F5630022012125206E62FFF7F1
:1022F0009DF825203DE0DFF898C063453BD1C369D8
:1023000043F48023C361C36903F480230493836986
:1023100043F0080383618069CDE9005100F00800B3
:10232000CDE903201B4D69462846FEF7D3FEE8148D
:10233000CDE90004694628460294FEF7CBFE134D12
:1023400011488C352838C5E90004C5E902472C61DD
:10235000C5E905482846EC61FEF734FE08B1FEF7F2
:1023600029F9F5630022114627206E62FFF75EF817
:102370002720FFF74DF805B0BDE8F0830038014095
:10238000001002400008014058000240B003002045
:1023900000480040000C014090F84230202B01D052
:1023A0000220704721B11AB10023036300F024BD5D
:1023B00001207047704770472DE9F843044690F8B4
:1023C0004100984616460D46202802D00220BDE85E
:1023D000F88385B17EB100206064212084F841003B
:1023E000FEF782FFA6848146E684A0682027B0F528
:1023F000805F02D003E00120E9E7206910B12E469A
:1024000000250EE000260CE08021204600F03CFD77
:10241000A8B9C6B116F8010B21684860E08C401ECF
:10242000E084E08C4B464FF00002CDF8008000289D
:10243000EAD14FF04001204600F026FD40B184F87B
:1024400041700320C3E735F8020BC0F30800E3E74F
:1024500084F841700020BAE77047FEE70148FEF7B4
:1024600078BF0000800400200D4800216422018014
:10247000416002814181012181813C304FF60C6233
:10248000017042804FF4FA7282803222C2800A22A6
:102490000281044AC2600174084601F007BB0000D3
:1024A00028000020000020413EB50024114800947F
:1024B000019402940E49846001600473047501253F
:1024C00005614FF460214460C161FEF727F908B14E
:1024D000FEF770F80520CDE900056946029405482D
:1024E000FEF79AF8002801D0FEF764F83EBD000020
:1024F00000240140780000201CB500240C49009401
:102500000A48019408600846FEF7E9FA08B1FEF7A8
:1025100051F800940022694605480194FEF7B8FA84
:10252000002801D0FEF746F81CBD000000740040F2
:10253000A80000200D4808B5416941F00101416142
:102540004069002200F00100009011460F20FEF7C4
:102550006DFF0F20FEF75CFF002211460D20FEF7F5
:1025600065FFBDE808400D20FEF752BF0010024095
:102570002DE9F04186B0002424480094019402948F
:102580000394816941F010018161816901F01001BA
:102590000491816941F020018161816901F020018C
:1025A0000491816941F004018161816901F00401B4
:1025B0000491816941F0080181618069144F00F044
:1025C00008004FF480750490002229463846FEF733
:1025D00085FEDFF84080002280214046FEF77EFE27
:1025E0000095022601250396CDE901546946384637
:1025F000FEF770FD8020CDE90005CDE90246694671
:102600004046FEF767FD06B0BDE8F08100100240CD
:102610000008014000100140094810B50749016059
:102620000621416040F6FF718160FEF763FE0028DD
:1026300003D0BDE81040FDF7BDBF10BD0030004025
:102640008004002010B586B000241748009401943F
:102650000294039404944FF080410594016041F684
:102660001F41C0E901144FF6FF71C0E903148461F2
:10267000FFF7ACFA08B1FDF79DFF4FF480500090D2
:1026800069460948FFF73AFB08B1FDF793FF049448
:1026900004A905480594FFF75BFA002801D0FDF76F
:1026A00089FF06B010BD0000BC00002010B5114C21
:1026B0000F480C2120604FF4E13060600020A060E2
:1026C000E060C4E90401A061E0612046FFF792FDEB
:1026D00008B1FDF76FFF2068C16841F01001C160CB
:1026E000BDE810404FF4807203490248FFF754BE22
:1026F00000480040F403002004010020FEE7FEE74C
:102700007047000070B50446072946D32078AA28F0
:1027100043D16078552840D1601810F8022C0D2A5A
:102720003BD110F8010C0A2837D1E578E81D884222
:1027300033D1642D31D8E8072FD1601929460679A5
:10274000201DFDF7E4FEB04227D1A6780D2E0FD054
:1027500006DC5EB1062E0FD0092E1ED110200EE031
:10276000212E0BD0232E05D0FF2E16D1002006E0FF
:102770000C2004E0122002E0142000E00420854236
:102780000BD164210548FDF7A6FD25B12A46211D80
:102790000248FDF75BFD0248067070BD040300208F
:1027A0000000002010B5374B86B04FF4807106282A
:1027B00034D009284FD00D281DD0232819D101224B
:1027C0001846FEF78BFD30480DF1040CB0F90810E7
:1027D000847B8389B0F90A208CE81E00B0F90610CA
:1027E0000091B0F90430B0F902204178007800F08F
:1027F000EBFC06B010BD01221846FEF76FFD224823
:102800001038B0F90A100091B0F90830B0F9001092
:102810004268B0F90C0000F01DFFEAE701221846FB
:10282000FEF75CFD18480DF1080C1030D0E90412D9
:10283000447E037E8CE81E00C268B0F90810CDE922
:102840000012B0F90630B0F90420B0F90210007897
:1028500000F0DAFDCDE701221846FEF73FFD0A48F9
:102860002C30B0F90810037CC2688DE80E00B0F976
:102870000630B0F90420B0F90210007800F07CFFB7
:10288000B7E7000000080140380000207047000052
:10289000F0B50E460746C1B0144611463046FDF766
:1028A00036FE0546AA208DF8000055208DF801005F
:1028B0008DF8027031468DF8034022466E4601A81D
:1028C000FDF7C4FC31190D200D7148710A20887183
:1028D0004FF0FF33E21D69460248FFF76DFD41B03E
:1028E000F0BD0000F4030020F0B50E460746C1B06D
:1028F000144611463046FDF717FE0546AA208DF80E
:10290000000055208DF801008DF8027031468DF8D9
:10291000034022466E4601A8FDF798FC31190D20B0
:102920000D7148710A2088714FF0FF33E21D69462E
:102930000248FFF741FD41B0F0BD0000F403002064
:1029400070B50446FDF763FC82B24FF0FF352B46AD
:1029500021460748FFF730FD2B46022205A1044817
:10296000FFF72AFDBDE87040C820FEF7A1BB0000BC
:10297000F40300200D0A0000FEF7F2BC30B595B05C
:1029800028216846FDF7C9FC14210AA8FDF7C5FCFB
:1029900018210FA8FDF7C1FC01210804CDE90010A2
:1029A0000025029502240491CDE907404FF4E01080
:1029B00009906846FEF71AFF08B172B6FEE70AA949
:1029C0000F2081E831004FF48060CDE90D05022130
:1029D0000AA8FEF72FFE08B172B6FEE74FF40040DA
:1029E00011900F940FA8FEF7AFFD002801D072B62A
:1029F000FEE715B030BD704710B50348FFF7EDF99D
:102A000002490120087010BDBC0000200200002017
:102A1000F0B50268204C214D214E224F224B4FF041
:102A2000804CA04209D0984207D0604505D0A8420A
:102A300003D0B04201D0B84204D122F0700E4A68EF
:102A400042EA0E02A04209D0984207D0604505D064
:102A5000A84203D0B04201D0B84203D122F440755D
:102A6000CA682A434D6922F080022A4302608A68BC
:102A7000C2620A688262A04201D0984201D109690B
:102A80000163012141610169C90703D0016921F096
:102A900001010161F0BD0000002C01400004004074
:102AA00000080040000C00400034014010B584686C
:102AB00042EA032224F47F440A432243826010BD89
:102AC000826822F070020A4342F007018160704779
:102AD00010B5036A046A24F001040462846924F0D6
:102AE000F00444EA021423F00A020A4384610262F9
:102AF00010BD10B5036A046A24F0100404628469EE
:102B000023F0A00324F4704444EA023243EA0111A2
:102B10008261016210BD10B5406A0021C185C18487
:102B2000FFF730FA10BD70B5446A2068406994F828
:102B30004110C0F3C0100025212904D118B1E5844B
:102B4000204600F08EF82068406994F84210C0F3E7
:102B50008010222904D118B1E585204600F05AF8EA
:102B6000606C40F0100060642046FFF70BFA70BD07
:102B700010B50146406A096809684FF000028906ED
:102B80002ED4C28501680C3151E8003F23F48073D4
:102B900041E80034002CF5D10168143151E8003FC0
:102BA00023F0010341E80034002CF5D10168143111
:102BB00051E8003F23F0400341E80034002CF5D1F8
:102BC000202180F84210016B012909D101680C31E4
:102BD00051E8003F23F0100341E80034002CF5D108
:102BE0004263016B012902D0FFF7E4FB10BD818D28
:102BF000FFF78FF910BD10B5406A01214163016BE9
:102C0000012902D0FFF7D7FB10BD818D4908FFF7DE
:102C100080F910BD01680C3151E8002F22F4907248
:102C200041E80023002BF5D10168143151E8002F51
:102C300022F0010241E80023002BF5D1016B0129AC
:102C400009D101680C3151E8002F22F0100241E84F
:102C50000023002BF5D1202180F8421000210163D0
:102C6000704701680C3151E8002F22F0C00241E8A2
:102C70000023002BF5D1202180F84110704708B5C2
:102C800090F84210222901D0022008BD82684FF43A
:102C900080539A4201D1016921B1816A9A421BD0C5
:102CA0004AB10AE00268816A5268C2F308020A80E7
:102CB000816A891C08E0026972B10268526802F0F8
:102CC0007F020A70816A491C8162C18D491E090414
:102CD000090CC18503D01BE002685268F1E7016866
:102CE000CA6822F02002CA600168CA6822F48072B1
:102CF000CA6001684A6922F001024A61202180F815
:102D0000421000214163026B012A03D0FFF752FBFE
:102D1000002008BD016301680C3151E8002F22F04A
:102D2000100241E80023002BF5D101680A68D206A1
:102D300002D50A6849680091818DFFF7EAF8E7E754
:102D400070B5044600680169E26821F440511143FE
:102D500001612169A0680843616908432168CA6864
:102D600041F20C639A430243CA6020684169A26938
:102D700021F44071114341611E492068884202D10B
:102D8000FEF7FEFC01E0FEF7EBFC00EBC00101EBFF
:102D90000012606864218000B2FBF0F3B3FBF1F332
:102DA0006FF018067343B2FBF0F5B2FBF0F605EBDB
:102DB0008305322303EB0515B5FBF1F5B6FBF1F600
:102DC00005F0F00505EB0615B2FBF0F6B2FBF0F0EE
:102DD000B0FBF1F06FF01802504306EB800003EBFC
:102DE0000010B0FBF1F0216800F00F00284488606B
:102DF00070BD00000038014038B58162044682850C
:102E0000002013466064222284F84220E56B1B4AAE
:102E1000AA62E56B1A4AEA62E56B1A4A2A63E26B18
:102E200050630A462168E06B091DFEF709F9206826
:102E3000016840680090206948B120680C3050E873
:102E4000001F41F4807140E80012002AF5D120688B
:102E5000143050E8001F41F0010140E80012002A40
:102E6000F5D12068143050E8001F41F0400140E8DF
:102E70000012002AF5D1002038BD0000712B000897
:102E8000F72B0008272B00082DE9F8439846174632
:102E90000D460446089E24E0701C22D0FEF724FA5A
:102EA000A0EB0800B0421AD8CEB12068C16849072B
:102EB00017D5802D15D0402D13D00168C9430907BF
:102EC0000FD401680025406800902046FFF7A2FE5D
:102ED0000820606484F840500120BDE8F883032096
:102EE000FBE72068006835EA000004D00020B84203
:102EF000D2D00020F1E70120F9E7000038B50F48F3
:102F0000FFF742F80D4908680268D20615D5026835
:102F100040680090C86B006840680846FEF7FAFFFA
:102F20004FF4807421460648FDF7D5F92246BDE8E6
:102F3000384003490148FFF72FBA38BD6803002025
:102F40000402002038B51348FFF71EF8114908683D
:102F50000268D2061CD5026840680090C86B006801
:102F60004068C0F5807084B20846FEF7D3FF4FF486
:102F7000807529460848FEF7A9F921460748FFF75A
:102F8000C1FB2A46BDE8384004490248FFF704BAAD
:102F900038BD0000F40300200008014004010020B7
:102FA000FEE70907090E002804DB00F1E02080F8A5
:102FB0000014704700F00F0000F1E02080F8141DAD
:102FC0007047704710B504460420FEF79FFD014886
:102FD000046010BD1400002070B54FF0E024002202
:102FE00065690949A36909684843A1699942FCD008
:102FF00002D2A3EB010302E0A5EB010633441A441D
:103000000B468242F1D370BD1400002040F6E4412B
:1030100000F27260884201D801207047002070479A
:10302000FEF7A6F9FFF7AAFC4820FFF7CBFFFFF752
:103030009FFAFFF77FFAFFF737FAFFF75DFAFFF71E
:1030400001FBFFF733FBFFF7E7FAFDF77BFA0948CF
:10305000FEF706FEFFF708FA074C0849207800F053
:103060003BF82078FFF79EFB002000F039FDFFF7CA
:10307000F5F9F2E7BC000020000000200403002066
:103080002DE9FC41074690460E120D46104600F011
:1030900093FE04B2204600F0CBFE414600F0F4FF60
:1030A0000C4900F025FF00F087FE8DF80060221229
:1030B00003128DF801508DF802208DF804308DF840
:1030C00005008DF80340062269463846FFF70CFCE0
:1030D000BDE8FC8100007A440D2836D01ADC0628B1
:1030E00043D0092815D133480B7803704B884380AF
:1030F0008B888380CB88C3800B8903814B8963F3E2
:103100000F028B8963F31F42C260C98901B101219B
:1031100001747047212844D02328FAD125480A7821
:103120002C3802708A7842708A884280CA888280ED
:103130000A89C2804A8902818A894281CA89828138
:10314000098A01B10121817370471A480A883C3805
:1031500082814A880280CA888B8842EA03424260A0
:103160000A89028149894181704712480A781C38CE
:1031700002704A8842808A888280CA88C2800A890E
:103180000281B1F90A20C260B1F90C200261B1F9E3
:103190000E2042610A7C0276498A01B10121417602
:1031A000704708880128FBD1488800B1012000F051
:1031B0007DBC000064000020024800218160C160E5
:1031C00001617047000000202DE9FE4F89460EA9DD
:1031D000DDE90C8791E850049B46154600B10120BB
:1031E00000F064FCB9F1000F2AD04EB32846FFF777
:1031F0000DFF28B35846FFF709FF08B34046FFF715
:1032000005FFE8B13846FFF701FFC8B1002C00DA2E
:10321000644220B2A0B10097CDE9010641460B46B9
:10322000A8455A462946484602DD00F07DF801E0EF
:1032300000F00AF8BAF1000F02D0002000F050FCB4
:10324000BDE8FE4F00F026BC2DE9FF5F1E46DDE91C
:103250000E78914683460025DFF8C8A058E0019C0F
:103260000FE021462320109A00F0BCFB9AF80010D2
:10327000FF290BD0C9B300BFFFF7F0F8A4EB08009B
:1032800004B2B442EDDA06EB080015E0FFF7E6F809
:103290009AF8000048B3FF28F8D0EDE72146232034
:1032A000109A00F09FFB9AF80010FF290AD0E1B1B4
:1032B000FFF7D4F804EB080004B2BC42EEDDA7EB44
:1032C00008001EE0FFF7CAF89AF8000068B1FF286E
:1032D000F8D0EDE721462320109A00F083FB9AF8FE
:1032E0000010FF2902D001B107E015E0FFF7B6F8A2
:1032F0009AF8000080B1FF28F8D0FFF7AFF8A4EBF0
:10330000080004B24C45E5DAFFF7A8F86D1CEDB2F1
:103310005D45A4D3BDE8FF9F04B00020BDE8F05F89
:1033200000F0DEBB000000202DE9FF5F1E46DDE956
:103330000E78914683460025DFF8C8A058E0019C2E
:103340000FE021462320109A00F04CFB9AF8001061
:10335000FF290BD0C9B300BFFFF780F804EB0800CA
:1033600004B2B442EDDDA6EB080015E0FFF776F8F5
:103370009AF8000048B3FF28F8D0EDE72146232053
:10338000109A00F02FFB9AF80010FF290AD0E1B143
:10339000FFF764F8A4EB080004B2BC42EEDA07EBD6
:1033A00008001EE0FFF75AF89AF8000068B1FF28FD
:1033B000F8D0EDE721462320109A00F013FB9AF88D
:1033C0000010FF2902D001B107E015E0FFF746F831
:1033D0009AF8000080B1FF28F8D0FFF73FF804EB1F
:1033E000080004B24C45E5DDFFF738F86D1CEDB27E
:1033F0005D45A4D3BDE8FF9F04B00020BDE8F05FA9
:1034000000F06EBB000000202DE9FC5F1E46DDE9E8
:103410000D450C9F91468A4600B1012000F046FB05
:103420005046FFF7F3FDC0B34846FFF7EFFDA0B3EA
:103430009CB395B3FFF7C0FEAC4202D920462C46A0
:103440000546002E00DA76420FFA86FB002F00DADE
:103450007F4238B25FEA000827D02E1B504600F0AA
:103460003FFBFDF741FF05460F9800EB4001C1EB24
:10347000C01701E0FEF7F2FFFDF736FF401BB0EB8F
:10348000C70FF7D3CDE9004650464946CA454346E3
:103490005A4603DA00F076F802E006E000F00AF897
:1034A000119810B1002000F01BFBBDE8FC5F00F09C
:1034B000F1BA00002DE9FF5F8946DDE90E8B8246F7
:1034C000054600262E4C51E02078002853D0554563
:1034D00002D0284600F004FBFDF706FF6060584666
:1034E000BBF10A0F01D9471F05E0074603E020782A
:1034F000FF2813D0F0B3FDF7F7FE6168401AB84219
:10350000F5D3052000F090FA07460298284400B24F
:1035100000F0E6FAFDF7E8FE606011E0FEF79EFFBE
:10352000207838B3FF28F9D0E5E72078FF2801D0CC
:1035300030B920E0FEF792FF2078D8B1FF28F9D00B
:10354000FDF7D2FE6168411A4145EED3052000F037
:103550006BFA394600F0A2FD024629460620FFF725
:103560008FFDFEF77BFF0398281A05B24D45ABDAB5
:10357000BDE8FF9FFFE7002000F0B2FA2670F7E7F2
:10358000000000202DE9FF5F8946DDE90E8B8246B1
:10359000054600262E4C51E02078002853D0554592
:1035A00002D0284600F09CFAFDF79EFE6060584667
:1035B000BBF10A0F01D9471F05E0074603E0207859
:1035C000FF2813D0F0B3FDF78FFE6168401AB842B0
:1035D000F5D3052000F028FA07460298284400B2E7
:1035E00000F07EFAFDF780FE606011E0FEF736FF26
:1035F000207838B3FF28F9D0E5E72078FF2801D0FC
:1036000030B920E0FEF72AFF2078D8B1FF28F9D0A2
:10361000FDF76AFE6168411A4145EED3052000F0CE
:1036200003FA394600F03AFD024629460620FFF724
:1036300027FDFEF713FF0398284405B24D45ABDD87
:10364000BDE8FF9FFFE7002000F04AFA2670F7E789
:10365000000000202DE9F04F8BB01F4691460C462C
:1036600000B1012000F022FA20B20546FFF7CEFC9F
:10367000404210EA090F01D0002F04DC0BB0BDE876
:10368000F04F00F007BAFDF72FFE8246002407EB4B
:103690008701601E00EB4101334826464FF00108C8
:1036A0000268D162C1600068274644622E48FEF776
:1036B000D7FA284600F014FA2C4D00BFFDF714FE8F
:1036C0002978B1B1FF2918D00D29F7D114B1011B08
:1036D0000E440024A0EB0A00811B09EB4902C2EB57
:1036E000C910B1EBC00F0BD300212148FDF77AFAC6
:1036F0002F701D48FEF7EAFAC0E78CBB04462FE0A6
:10370000A87868B3AF70052000F08EF9009000F043
:1037100053FB01B28B46084600F08AFB009900F08B
:10372000B3FC144900F0E4FB00F046FB02124FEA40
:10373000182C8DF810C08DF814204FEA2B238DF82B
:1037400011808DF812308DF815008DF813B0062217
:1037500004A90D20FFF79CF808F101001FFA80F87A
:10376000FEF77CFEAAE70000BC000020000000205D
:10377000A800002000007A442DE9F84F0F460AA95E
:103780001C4691E84006154600B1012000F08EF974
:103790003846FFF73BFCB0B32846FFF737FC90B341
:1037A000B9F5000F38DB002E00DA764236B2002C75
:1037B00000DA64420FFA84F82EB30121484600F083
:1037C00014FD0146164800F035FA4FF07E5188424C
:1037D00000DA084600F00CFB80B2401E00F040FB0F
:1037E0000446FFF7E9FC384600F07AF90A20FDF7B5
:1037F0005FFCAF423346424629463846009403DA1E
:1038000000F080F802E007E000F00CF8BAF1000FD9
:1038100002D0002000F064F9BDE8F84F00F03AB99A
:1038200000007A442DE9F047984616460F460546B3
:10383000334CDDF820905AE02078FF2809D000288A
:1038400059D0A81900B200F04BF9FDF74DFD6060AA
:103850000AE0FEF703FE207838B3FF28F9D0F0E73E
:103860002078FF2816D000B3FDF73EFD6168401AAE
:1038700000F0F6FA494600F007FBF1D3052000F00E
:10388000D3F88246A81B00B200F02AF9FDF72CFD00
:10389000606011E0FEF7E2FD207830B1FF28F9D03A
:1038A000E2E72078FF2801D030B924E0FEF7D6FD0A
:1038B000207800B3FF28F9D0FDF716FD6168401AA3
:1038C00000F0CEFA494600F0DFFAEAD3052000F016
:1038D000ABF80146504600F0E1FB024629460920BC
:1038E000FFF7CEFBFEF7BAFDA5EB080005B2BD421F
:1038F000A2DABDE8F087BDE8F047002000F0F0B89C
:10390000000000202DE9F047984616460F46054670
:10391000334CDDF820905AE02078FF2809D00028A9
:1039200059D0A81900B200F0DBF8FDF7DDFC6060AB
:103930000AE0FEF793FD207838B3FF28F9D0F0E7CE
:103940002078FF2816D000B3FDF7CEFC6168401A3E
:1039500000F086FA494600F097FAF1D3052000F00E
:1039600063F88246A81B00B200F0BAF8FDF7BCFC71
:10397000606011E0FEF772FD207830B1FF28F9D0C9
:10398000E2E72078FF2801D030B924E0FEF766FD99
:10399000207800B3FF28F9D0FDF7A6FC6168401A33
:1039A00000F05EFA494600F06FFAEAD3052000F015
:1039B0003BF80146504600F071FB024629460920BB
:1039C000FFF75EFBFEF74AFD05EB080005B2BD42BE
:1039D000A2DDBDE8F087BDE8F047002000F080B828
:1039E000000000202DE9F041064617460D46084626
:1039F00000F076F8FDF778FC0A4C6060FDF774FC87
:103A00006168401AB842F9D3052000F00DF802466B
:103A1000206129463046FFF733FBFDF765FC606007
:103A2000BDE8F0810000002070B50A21FCF7DCFD44
:103A300000F016FA0E4900F05BFA0E4900F0FAF8B1
:103A400001460D4845787DB10C4C0D4800F026FB31
:103A5000214600F0EFF80B4900F04AFA35B10A4967
:103A6000BDE8704000F01ABB084CEEE70849F7E7E4
:103A70003333534000F07F450000002000609F4535
:103A8000CDCCCC3F00247449DD24C63E00F0D246A4
:103A9000A8C68B3E044908B500200870012269467B
:103AA0000090FEF7F5FE08BD000000200A4910B5A1
:103AB0004A7882420ED0094B487048B100228021DA
:103AC0001846FDF70BFCBDE810400A20FDF7F0BAE0
:103AD0000122F4E710BD00000000002000100140AA
:103AE000154910B5884202DB4942884200DD08468C
:103AF00000F09EF9114900F0C7FA114C214600F080
:103B0000F7F9104900F096F810F1FF4F01D30020AB
:103B100002E0A04200DD204600F06AF984B20022F3
:103B2000234611460848FDF71BF800210648FDF71B
:103B300028F8204610BD00008EF9FFFF0040CE445B
:103B400000F07F4500404E45A800002090EA010F9C
:103B500048BF81F0004100F1A882421A3CBF801AA0
:103B600089184FEAD0524FF07F4C1CEA410FA2EB6C
:103B7000D15318BF9CEA026F00F03B804FF0004C1D
:103B80004CEA00204CEA012121FA03FC10EB0C0C5A
:103B90001ED202F1FF325FEA1C2040EBC25038BF58
:103BA00070471CF07F0F4FEA400C18BFBCF17F4FED
:103BB00038BF7047C3F12003994008BF20F00100CF
:103BC000BCF17F4F38BF7047A0F1C04000F057BA3A
:103BD0004FEA3C00000A40EBC25028BF1CF0FF0F28
:103BE0004FEA400CE6D018BFBCF17F4F38BF70479A
:103BF000EAE79CEA026F05D010EA5C0F08BF00F00C
:103C00000040704710B500F0F4F900BF64FBBE3E01
:103C1000014800F0B8BA00BF0000C07F401058BF94
:103C2000C0F14040491058BFC1F140418142EFF31B
:103C3000008070474FF47F0C1CEAD0121EBF1CEAB4
:103C4000D11392EA0C0F93EA0C0F00F0858090EAF2
:103C5000010F48BF42F4807240F4000C41F40000B0
:103C60002CF07F4120F07F4000B58142A2EB03029F
:103C70000FF2081CACEB504EC0F100009EF800E0C3
:103C80004FEA4E0E00FB0EFC38BF49004FEA2C1CD9
:103C900002F5FA020CFB0EF34FEACE1E4FEA112C8E
:103CA0004FEAC1210EEB635E42EB22420EFB0CFC9D
:103CB0004FEA1C5300FB03114FEA112C4FEA01316C
:103CC0000EFB0CFC4FEADC4C00FB0C11C14228BF80
:103CD00009184CEB03335DF804EB10EB410143EBA7
:103CE000C250B2F57C0F38BF704729D512F0F00FE3
:103CF0001CBF00F1C04000F000407047008182838B
:103D00008485868788898B8C8D8E8F9192939596EA
:103D100097999A9C9D9FA0A2A3A5A7A8AAACAEB074
:103D2000B2B3B5B7B9BCBEC0C2C5C7C9CCCED1D479
:103D3000D7D9DCDFE2E6E9ECF0F3F7FAFE000000A9
:103D40004FEA400C0CF1807CBCF17E4F28BF7047DD
:103D5000B0F1C04000F093B990EA010F0CEAD11322
:103D600048BF42F48072624538BF634507D213F4FE
:103D70007F0F16D080EA010000F00040704710B5B8
:103D800000F037F9097EFC3E00F005B880EA01003A
:103D900000F00040704780EA010000F0004000F0B1
:103DA0006EB912F47F0F04BF0248704780EA010029
:103DB00000F065B90000C07F41000B0ED3F19E02F8
:103DC00008D950F400034FEA032323FA02F048BF56
:103DD0004042704710B500F00CF900BF49922480B2
:103DE000002070476FF0004282EA20007047000018
:103DF000C10DD1F19E0206DB4FEA002343F00043E0
:103E000023FA02F07047004207D54FEA4001B1F1B2
:103E1000FE4F02D24FF00000704710B500F0E9F8F5
:103E200049922480002070476FEA2000704700000C
:103E300010F0004148BF4042B0FA80F310FA03F29C
:103E4000C3F19D030BD051EAC35101EB122053067D
:103E500038BF704700F1010008BF20F00100704733
:103E6000B0FA80F310FA03F2C3F19D030AD0D9052A
:103E700001EB1220530638BF704700F1010008BF64
:103E800020F001007047000050EA010C00F113809F
:103E90001CF5000F58BFBCF5000F01D488427047D5
:103EA00007D710F5000F58BF11F5000F15D4884241
:103EB0007047894270471CF5000F04D5BCF5000F10
:103EC000F7D5814270474FF0807C1CEB400F38BF24
:103ED0001CEB410F01D28142704710B500F089F808
:103EE000922449004FF000504FF08051FFF796BEEA
:103EF0004FF47F0C1CEAD0121EBF1CEAD11392EAC9
:103F00000C0F93EA0C0F00F0478090EA010F48BFB6
:103F100042F480724FF0004C4CEA00204CEA012140
:103F200002EB0302A0FB0113A2F50002002918BF57
:103F300043F001035B0028BF4FEA330342EB224208
:103F40005FEA132C4CEBC2502EBFBCEB436FB2F5B3
:103F50007C0F70474FEA036CBCF1004F08BF20F0A4
:103F60000100B2F57C0F38BF70470BD582F0FF021D
:103F700012F5803FC8BF704700F1C040D8BF00F0C5
:103F80000040704700F5000C5FEA4C0C48BF7047DA
:103F9000B0F1C04000F073B890EA010F0CEAD11301
:103FA00048BF42F48072624538BF634504D280EA5C
:103FB000010000F00040704710B500F01AF800BF93
:103FC0008900013E00F007B800F009B85FEA410C33
:103FD0005FEA1C6C08D080EA010000F050B85FEA8C
:103FE000400C5FEA1C6CF6D14FF00040A0F5800059
:103FF00070470EF1020E2EF0030E5EF8044B2442C1
:1040000004D44FEA4102B2F17F4F11D84FEA400386
:10401000B3F17F4F0CD80ED14FEAD07CB2F17F4F75
:104020000CEB4C0C0CF1020C08BF4CEBD17C04E007
:104030004FF0080C01E04FEAD17C0CEB4C0324FA62
:1040400003F404F00704B4F1040C06D20EEB840C64
:10405000BDE810404CF0010C6047DFE80CF00708A9
:1040600002024FF00040A0F5800010BD084642005B
:1040700018BFD2F1807288BF00F0004010BDFF2150
:1040800041EAD050C005704780F0004090EA010F2F
:104090007FF563AD81F0004100F007B890EA010FB1
:1040A00048BF81F000413FF558AD421A04D882F074
:1040B0000042A0EB020011444FEAD0524FF07F4C77
:1040C0001CEA410FA2EBD15318BF9CEA026F4AD001
:1040D0004FF0004C4CEA00204CEA012121FA03FC8D
:1040E000B0EB0C0C0FD412F0FE0F36D05FEA4C0090
:1040F0001DD5001240EBC25038BF70471CF03F0F77
:1041000018BF70470BE0A2F101025FEA1C2040EBF0
:10411000C25038BF70471CF07F0F18BF7047C3F103
:104120002003994014BF401E20F001007047800812
:104130004FEA122308BF7047B0FA80FCA2EB0C02D2
:10414000CCF1280C60FA0CF093EA122F04BF00EBBC
:10415000C25070474FEAC3707047130A5FEADC1021
:1041600008BF7047F6E79CEA026F04D010EA5C0FC4
:1041700008BF0020704710B5FFF73BFF40DFF63E59
:1041800081F0004070470CF00F03092B08BF082096
:1041900000F051800A2B0BD0082B18BF704708BFC6
:1041A0001CF0400F0AD04FF000004FF000017047A4
:1041B0001CF0400F18BF4FF0004070471CF0100F6C
:1041C00008D020F0704300F07F4242EAD3014FEA6A
:1041D0004370704700F0604021F07F4242EA0002E5
:1041E00001F07F4040EA727070474FF0FF0212EA20
:1041F000D0521CBF92F0FF038B42C2BFD14200EBF2
:10420000C1507047002A0AD0002B0BD0002900F0C3
:104210000040A4BF40F0FE4040F40000704700F0B2
:104220000040704743024FF00B0C18BF4CF0806CFD
:104230007FF4EEAC70471CF4801F11D01CF4E02F0B
:1042400003D06FEACC31490070474FF04050EFF394
:10425000008222F0704242EA000282F30088704736
:104260004FF0000070470102020304050607080929
:104270000A0B0C0D0E0F10100102020304050607B5
:1042800008090A0B0C0D0E0F1010000000000000B2
:1042900000000102030406070809000000000102F3
:1042A00003040000C44200080000002028000000B1
:1042B0006C010008EC42000828000020C80A000039
:1042C000880100080001000000000000000000005C
:1042D00000000000000000000000000001000000DD
:0C42E000100000000000000000127A0036
:0400000508000131BD
:00000001FF
